:020000040000FA
:06000000EFEF00F012001A
:020006000000F8
:08000800DACFE4FFE652E552F5
:06001000E5CFDAFF11004C
:020016001200D6
:08001800D8CFE4FFE0CFE4FFC4
:10002000E46EDACFE4FFE652E552E5CFDAFFE550C1
:0A003000E5CFE0FFE5CFD8FF100098
:06003A00060EF66E000E3A
:10004000F76E000EF86E00010900F550056F09000B
:10005000F550066F03E1056701D03DD00900F5506A
:10006000006F0900F550016F0900F550026F09009B
:100070000900F550E96E0900F550EA6E0900090023
:100080000900F550036F0900F550046F09000900DD
:10009000F6CF07F0F7CF08F0F8CF09F000C0F6FF71
:1000A00001C0F7FF02C0F8FF0001035302E104534F
:1000B00007E00900F550EE6E0307F8E20407F9D7F0
:1000C00007C0F6FF08C0F7FF09C0F8FF00010507E9
:0800D000000E065BBFD7120011
:0800D8001200E66A0FD841E9AD
:1000E0001200D9CFE6FFE1CFD9FF82E900EBE6FFAE
:1000F00005D841E941E9E7CFD9FF1200D9CFE6FFA2
:10010000E1CFD9FF82E90AC06FFF6DA0FED70001E1
:100110000B510EE100010C510BE1AB0E6F5C02E0E4
:10012000000E01D0010E00010B6F00EB0AF013D09E
:1001300000010B510DE000010C510AE1CD0E6F5C86
:1001400002E0000E01D0010E0C6F0001EF0E02D094
:100150000001010E0A6F6F5041E9E7CFD9FF12008D
:10016000070E936E100E946E926E0F01396B400E57
:100170006D6E040E6C6E6C8A780EE66E7EEC00F08E
:1001800041E9FAD7D9CFE6FFE1CFD9FF83E944E8C7
:10019000036A046A056A066A01340650011804E617
:1001A0000050055C0150065806E2032A000E0422A6
:0E01B000052A0622F1D745E9E7CFD9FF120054
:0201BE00000E31
:1001C000F36E00EE00F0060E01D81200EA6002D0D5
:0E01D000EE6AFCD7F350E9601200EE6AFCD72D
:0201DE0015EE1C
:1001E00000F025EE00F0F86A1DEC00F0FCEC00F0E9
:0801F000B0EC00F0FBD7120097
:0201F8001200F3
:00000001FF
